{"abi":[{"type":"function","name":"addStudent","inputs":[{"name":"_name","type":"string","internalType":"string"},{"name":"_age","type":"uint256","internalType":"uint256"}],"outputs":[],"stateMutability":"nonpayable"},{"type":"function","name":"students","inputs":[{"name":"","type":"uint256","internalType":"uint256"}],"outputs":[{"name":"name","type":"string","internalType":"string"},{"name":"age","type":"uint256","internalType":"uint256"},{"name":"present","type":"bool","internalType":"bool"}],"stateMutability":"view"},{"type":"function","name":"updateAttendance","inputs":[{"name":"_studentId","type":"uint256","internalType":"uint256"},{"name":"_present","type":"bool","internalType":"bool"}],"outputs":[],"stateMutability":"nonpayable"},{"type":"event","name":"AttendanceUpdated","inputs":[{"name":"studentId","type":"uint256","indexed":true,"internalType":"uint256"},{"name":"present","type":"bool","indexed":false,"internalType":"bool"}],"anonymous":false},{"type":"event","name":"StudentAdded","inputs":[{"name":"studentId","type":"uint256","indexed":true,"internalType":"uint256"},{"name":"name","type":"string","indexed":false,"internalType":"string"},{"name":"age","type":"uint256","indexed":false,"internalType":"uint256"}],"anonymous":false}],"bytecode":{"object":"0x6080604052348015600e575f5ffd5b50610a808061001c5f395ff3fe608060405234801561000f575f5ffd5b506004361061003f575f3560e01c806306ead22e146100435780630e5eeef714610075578063d6f4d53a14610091575b5f5ffd5b61005d60048036038101906100589190610343565b6100ad565b60405161006c93929190610407565b60405180910390f35b61008f600480360381019061008a919061056f565b610173565b005b6100ab60048036038101906100a691906105f3565b610244565b005b5f81815481106100bb575f80fd5b905f5260205f2090600302015f91509050805f0180546100da9061065e565b80601f01602080910402602001604051908101604052809291908181526020018280546101069061065e565b80156101515780601f1061012857610100808354040283529160200191610151565b820191905f5260205f20905b81548152906001019060200180831161013457829003601f168201915b505050505090806001015490806002015f9054906101000a900460ff16905083565b5f60405180606001604052808481526020018381526020015f1515815250908060018154018082558091505060019003905f5260205f2090600302015f909190919091505f820151815f0190816101ca919061083f565b50602082015181600101556040820151816002015f6101000a81548160ff021916908315150217905550505060015f80549050610207919061093b565b7ffafb7311fc57ca8a55073f63725e888b4250c799d77ae873970d65ac08c5917a838360405161023892919061096e565b60405180910390a25050565b5f80549050821061028a576040517f08c379a0000000000000000000000000000000000000000000000000000000008152600401610281906109e6565b60405180910390fd5b805f838154811061029e5761029d610a04565b5b905f5260205f2090600302016002015f6101000a81548160ff021916908315150217905550817fb24c5a7d71fb23dd51bc8d1fcbf951fa449ec941f1775a487bc9139bd573099d826040516102f39190610a31565b60405180910390a25050565b5f604051905090565b5f5ffd5b5f5ffd5b5f819050919050565b61032281610310565b811461032c575f5ffd5b50565b5f8135905061033d81610319565b92915050565b5f6020828403121561035857610357610308565b5b5f6103658482850161032f565b91505092915050565b5f81519050919050565b5f82825260208201905092915050565b8281835e5f83830152505050565b5f601f19601f8301169050919050565b5f6103b08261036e565b6103ba8185610378565b93506103ca818560208601610388565b6103d381610396565b840191505092915050565b6103e781610310565b82525050565b5f8115159050919050565b610401816103ed565b82525050565b5f6060820190508181035f83015261041f81866103a6565b905061042e60208301856103de565b61043b60408301846103f8565b949350505050565b5f5ffd5b5f5ffd5b7f4e487b71000000000000000000000000000000000000000000000000000000005f52604160045260245ffd5b61048182610396565b810181811067ffffffffffffffff821117156104a05761049f61044b565b5b80604052505050565b5f6104b26102ff565b90506104be8282610478565b919050565b5f67ffffffffffffffff8211156104dd576104dc61044b565b5b6104e682610396565b9050602081019050919050565b828183375f83830152505050565b5f61051361050e846104c3565b6104a9565b90508281526020810184848401111561052f5761052e610447565b5b61053a8482856104f3565b509392505050565b5f82601f83011261055657610555610443565b5b8135610566848260208601610501565b91505092915050565b5f5f6040838503121561058557610584610308565b5b5f83013567ffffffffffffffff8111156105a2576105a161030c565b5b6105ae85828601610542565b92505060206105bf8582860161032f565b9150509250929050565b6105d2816103ed565b81146105dc575f5ffd5b50565b5f813590506105ed816105c9565b92915050565b5f5f6040838503121561060957610608610308565b5b5f6106168582860161032f565b9250506020610627858286016105df565b9150509250929050565b7f4e487b71000000000000000000000000000000000000000000000000000000005f52602260045260245ffd5b5f600282049050600182168061067557607f821691505b60208210810361068857610687610631565b5b50919050565b5f819050815f5260205f209050919050565b5f6020601f8301049050919050565b5f82821b905092915050565b5f600883026106ea7fffffffffffffffffffffffffffffffffffffffffffffffffffffffffffffffff826106af565b6106f486836106af565b95508019841693508086168417925050509392505050565b5f819050919050565b5f61072f61072a61072584610310565b61070c565b610310565b9050919050565b5f819050919050565b61074883610715565b61075c61075482610736565b8484546106bb565b825550505050565b5f5f905090565b610773610764565b61077e81848461073f565b505050565b5f5b828110156107a4576107995f82840161076b565b600181019050610785565b505050565b601f8211156107f757828211156107f6576107c38161068e565b6107cc836106a0565b6107d5856106a0565b60208610156107e2575f90505b8083016107f182840382610783565b505050505b5b505050565b5f82821c905092915050565b5f6108175f19846008026107fc565b1980831691505092915050565b5f61082f8383610808565b9150826002028217905092915050565b6108488261036e565b67ffffffffffffffff8111156108615761086061044b565b5b61086b825461065e565b6108768282856107a9565b5f60209050601f8311600181146108a7575f8415610895578287015190505b61089f8582610824565b865550610906565b601f1984166108b58661068e565b5f5b828110156108dc578489015182556001820191506020850194506020810190506108b7565b868310156108f957848901516108f5601f891682610808565b8355505b6001600288020188555050505b505050505050565b7f4e487b71000000000000000000000000000000000000000000000000000000005f52601160045260245ffd5b5f61094582610310565b915061095083610310565b92508282039050818111156109685761096761090e565b5b92915050565b5f6040820190508181035f83015261098681856103a6565b905061099560208301846103de565b9392505050565b7f53747564656e7420646f6573206e6f74206578697374000000000000000000005f82015250565b5f6109d0601683610378565b91506109db8261099c565b602082019050919050565b5f6020820190508181035f8301526109fd816109c4565b9050919050565b7f4e487b71000000000000000000000000000000000000000000000000000000005f52603260045260245ffd5b5f602082019050610a445f8301846103f8565b9291505056fea2646970667358221220eb20538eec96e6202e3089f434779f1a5aa9616e44cf58c5ae7edd91feb9bf0564736f6c63430008210033","linkReferences":{}},"methodIdentifiers":{"addStudent(string,uint256)":"0e5eeef7","students(uint256)":"06ead22e","updateAttendance(uint256,bool)":"d6f4d53a"},"id":16}